:03000000020D32BC
:0C0D3200787FE4F6D8FD758122020D796F
:100DBE006B65795F696E666F2E636F756E745F62B9
:100DCE006974203C2031360D0A006B65795F696EBF
:100DDE00666F2E636F756E745F626974203E20318C
:100DEE0036300D0A006B65795F76616C75653A2554
:100DFE00640D0A00636F756E745F6269743A2564E0
:100E0E000D0A0076616C75655F6D73673A00256437
:0B0E1E0020000D0A0074696D653A00A9
:03102C00011200AE
:100E7F009002B5E0FBA3E0FAA3E0F99002AFE0FC2B
:0E0E8F00A3E0F5828C83EF12094A7F017E00FA
:100E9D00E4FDFCC3ED9FEC9E5015E4FBFA0BBB008B
:0F0EAD00010AEB64724A70F50DBD00010C80E480
:010EBC002213
:0E0FF100758921758DF4858D8BD2ABC28E2251
:05102700C2A8D28822DE
:100FCF0043985075CADC75CCDC75CBFF75CDFF75BA
:030FDF00C83422F1
:0B0E29009002FEEBF0A3EAF0A3E9F05A
:100E3400E4A3F0A3F09002FEE0FBA3E0FAA3E0F940
:100E4400120FBA900301E0FCA3E0FDC39FEC9E5097
:100E5400299002FEE0FBA3E0FAA3E0F98D828C83E3
:100E640012090BF5993099FDC299900302E004F040
:0A0E740070C3900301E004F080BB9E
:010E7E002251
:0A100C00AE078E993099FDC29922BB
:100BDB00E49002ABF0D296120FCF120FF11210204D
:100BEB00121027D290D291D2AF9002AB74FFF0B219
:100BFB00927F147E00120E9DE512640160081205AF
:100C0B00A49002ABEFF09002ABE0FFF460DBEFB42B
:100C1B0010187E027FAB7D007B017A0079001209F0
:100C2B00B6751201C290C289D2A8E5127024900247
:100C3B00ABE0FFD3940A501A900000EFF07B017ADF
:100C4B00007900120B0F7B017A00790012038312DB
:100C5B000FE2E512640270919002ABE0FFD3940AAD
:100C6B005087900000EFF0120A287B017A00790080
:0D0C7B00120C88D290D291E4F512020BF415
:1005A4009002AD74FFF075B0FE9002ACE5B0F0E0DF
:1005B40054F0F09002ACE064F060627F057E0012BB
:1005C4000E9DE5B0F0E054F0F09002ACE064F06011
:1005D40043E5B0F0E02482602424C0601824E06085
:1005E4000C24F0701E9002AD7401F080169002ADE0
:1005F4007402F0800E9002AD7403F080069002AD98
:100604007404F09002ACE064F060BEE5B0F0E05435
:10061400F0F080EF7F057E00120E9D809675B0FD90
:100624009002ACE5B0F0E054F0F09002ACE064F07D
:1006340060627F057E00120E9DE5B0F0E054F0F09C
:100644009002ACE064F06043E5B0F0E02483602401
:1006540024C0601824E0600C24F0701E9002AD7475
:1006640005F080169002AD7406F0800E9002AD7411
:1006740007F080069002AD7408F09002ACE064F0DC
:1006840060BEE5B0F0E054F0F080EF7F057E00122C
:100694000E9D809675B0FB9002ACE5B0F0E054F08E
:1006A400F09002ACE064F060627F057E00120E9D63
:1006B400E5B0F0E054F0F09002ACE064F06043E5A3
:1006C400B0F0E02485602424C0601824E0600C2489
:1006D400F0701E9002AD7409F080169002AD740A99
:1006E400F0800E9002AD740BF080069002AD740C95
:1006F400F09002ACE064F060BEE5B0F0E054F0F0DD
:1007040080EF7F057E00120E9D809675B0F79002F3
:10071400ACE5B0F0E054F0F09002ACE064F060625C
:100724007F057E00120E9DE5B0F0E054F0F09002DB
:10073400ACE064F06043E5B0F0E02489602424C0B8
:10074400601824E0600C24F0701E9002AD740DF06B
:1007540080169002AD740EF0800E9002AD740FF00E
:1007640080069002AD7410F09002ACE064F060BEBC
:10077400E5B0F0E054F0F080EF7F057E00120E9DAE
:0707840080969002ADE0FF3A
:01078B00224B
:03001B00021030A0
:03103000B2963243
:0300030002078C65
:10078C00C0E0C0F0C083C082C0D075D000C000C033
:10079C0001C002C003C004C005C006C007C2A8E562
:1007AC0012640160030208D7758C00758A00D28C24
:1007BC0030B24130B244E58CD394C840F69000027C
:1007CC00E09410900001E09400400AC2917512026E
:1007DC00C28C0208D77E027FAB7D007B017A007948
:1007EC00001209B67BFF7A0D79BE120089C28CD239
:1007FC00A80208D720B20330B2FDC28C900002E0F0
:10080C0025E0FF900001E033FE742B2FF58274007D
:10081C003EF583E58CF0900002E025E0FF900001AE
:10082C00E033FE742C2FF58274003EF583E58AF0DC
:10083C00758C00758A00D28C900002E05407FFC3BF
:10084C0074079FFF20B2047E0180027E00EEA80791
:10085C00088002C333D8FCFD900001E0FEA3E078D1
:10086C0003CEC313CE13D8F92403F58274003EF5DE
:10087C0083E04DFD900001E0FEA3E07803CEC313AE
:10088C00CE13D8F92403F58274003EF583EDF09075
:10089C000002E004F07006900001E004F0D3900038
:1008AC0002E09440900001E0940150030207BC7EEA
:1008BC00027FAB7D007B017A0079001209B6C28CF5
:1008CC007BFF7A0D79D8120089D2A8D007D006D038
:1008DC0005D004D003D002D001D000D0D0D082D02B
:0608EC0083D0F0D0E032E1
:0E0FE200E4F9120E99B29509E9B4B4F6D2956D
:010FF00022DE
:0B0B0F009002ACEBF0A3EAF0A3E9F0C9
:100B1A001208F224FFFFE434FFFE7C027DAB1209C7
:100B2A006C9002B3EEF0A3EFF0A3EBF0A3EAF0A30C
:100B3A00E9F0E49002AFF0A3F09002AFE0FEA3E088
:100B4A00FFC3942BEE940050229002B4E02FFF9042
:100B5A0002B3E03EFE120EEC120E7F9002B0E004E9
:100B6A00F070D69002AFE004F080CE9002ACE0FBC9
:100B7A00A3E0FAA3E0F990000112097E25E0FEE560
:100B8A00F0339002B1F0A3CEF09002AFE4F0A37478
:100B9A002BF09002B2E0242BFF9002B1E03400FE69
:100BAA009002AFE0FCA3E0FDC39FEC9E50229002AE
:100BBA00B4E02DFF9002B3E03CFE120EEC120E7F61
:100BCA009002B0E004F070CA9002AFE004F080C274
:010BDA0022F8
:0B0C88009002ACEBF0A3EAF0A3E9F04F
:100C93001208F224FFFFE434FFFE7C027DAB12094D
:100CA3006C9002B3EEF0A3EFF0A3EBF0A3EAF0A392
:100CB300E9F09002ACE0FBA3E0FAA3E0F9900001B5
:100CC30012097E25E0FFE5F033FEEF242BFFE43E1F
:100CD3009002B1F0A3EFF0E49002AFF0A3F0900222
:100CE300B1E0FEA3E0FF9002AFE0FCA3E0FDC39FF1
:100CF300EC9E503A9002B4E02DFF9002B3E03CFE2C
:100D03009002B5E0FBA3E0FAA3E0F99002AFA3E001
:100D1300F5828C8312090BFD120EBD120E999002FF
:0E0D2300B0E004F070B89002AFE004F080B0D1
:010D3100229F
:0B0383009002ACEBF0A3EAF0A3E9F05D
:10038E0090000312090B54809002B1F0E49002AF7A
:10039E00F0A3F09002ACE0FBA3E0FAA3E0F990002A
:1003AE000112097EFF9002AFE0FCA3E0FDC39FECBB
:1003BE0095F050789002ACA3A3E0242BF9E43AFA1E
:1003CE00ED25E0FFEC33FEE92FF9EA3EFA1208F2D2
:1003DE00F4041209389002B0E025E0FF9002AFE07D
:1003EE0033FEEF242CFFE43EFE9002ACE0FBA3E0D4
:1003FE00FAA3E0F98F828E8312090BF404FD9002AA
:10040E00B0E025E0FF9002AFE033FE742C2FF582B2
:10041E00E43EF583ED12094A9002B0E004F0600369
:10042E000203A19002AFE004F00203A1E49002AF38
:10043E00F0A3F09002ACE0FBA3E0FAA3E0F9900089
:10044E000112097EFFC39002B0E09F9002AFE095CB
:10045E00F040030205A39002B1E060030205019093
:10046E0002ACA3A3E0242BF9E43AFA9002B0E02503
:10047E00E0FF9002AFE033FEE92FF9EA3EFA1208F0
:10048E00F2F58CEF242CFFE43EFE9002ACE0FBA3D1
:10049E00E0FAA3E0F98F828E8312090BF58AD28CD3
:1004AE00D28EE92403F9E43AFA9002B0E02401FD79
:1004BE009002AFE03400FCEDAE047803CEC313CE51
:1004CE0013D8F929F9EA3EFA1208F2FFED5407FEA5
:1004DE00C374079EFE7401A806088002C333D8FCBD
:1004EE005F9002B1F0308DFDC28EC28DC28CD2965D
:1004FE000205929002ACE0FBA3E0FAA3E0242BF9F4
:10050E00E43AFA9002B0E025E0FF9002AFE033FE4D
:10051E00E92FF9EA3EFA1208F2F58CEF242CFFE4EB
:10052E003EFE9002ACE0FBA3E0FAA3E0F98F828ED0
:10053E008312090BF58AD28CE92403F9E43AFA9076
:10054E0002B0E02401FD9002AFE03400FCEDAE04F9
:10055E007803CEC313CE13D8F929F9EA3EFA12085E
:10056E00F2FFED5407FEC374079EFE7401A8060841
:10057E008002C333D8FC5F9002B1F0308DFDC28C87
:10058E00C28DD2969002B0E004F070069002AFE0F9
:05059E0004F00204411D
:0105A3002235
:100A28007BFF7A0D79F3900000E0FF9002D9E4F0A3
:100A3800A3EFF01200897BFF7A0E7902900001E0A3
:100A4800FFA3E09002D9CFF0A3EFF01200897BFF5B
:100A58007A0E7911120089E49002ACF0A3F09002AA
:100A6800ACE0FEA3E0FFC3940AEE64809480502DAE
:100A78007BFF7A0E791C74032FF58274003EF58390
:100A8800E0FF9002D9E4F0A3EFF01200899002ADE4
:100A9800E004F070C99002ACE004F080C17BFF7AFA
:100AA8000E79201200897BFF7A0E7923120089E4DF
:100AB8009002ACF0A3F09002ACE0FEA3E0FFC39478
:100AC800A0EE64809480502D7BFF7A0E791C742BE5
:100AD8002FF58274003EF583E0FF9002D9E4F0A37D
:100AE800EFF01200899002ADE004F070C99002ACFA
:100AF800E004F080C17BFF7A0E79201200897BFF29
:070B08007A0E79200200893A
:100F6300120F87120F29120F3EAB071210167F0ABA
:020F73007E00FE
:100F7500E4FDFCC3ED9FEC9E50070DBD00010C8008
:010F8500F279
:010F86002248
:07102000D2A100D2A00022C2
:0D0FFF00D2A000D2A100C2A000C2A1002219
:0A101600C2A000D2A100D2A0002267
:100F8700E4FEEF25E0FFC2A10092A000D2A1000E6F
:0A0F9700EEB408EEC2A100D2A000E3
:010FA100222D
:100F3E00E4FEC2A100D2A0FD00D2A10030A0047F29
:100F4E00018002E4FFEE25E04FFEC2A10DEDB408D4
:040F5E00E700AF06F3
:010F6200226C
:100F1600120F87120F29AF04120F87120F29AF0580
:030F2600120F8720
:100F2900E4FFD2A10030A009EFC394FF50030F8062
:040F3900F4C2A1005D
:010F3D002291
:02000600AD0744
:10000800120FFF7FA0120F1E120FFF7FA1120F63A6
:02001800AF0334
:01001A0022C3
:040EEC00AD07AC069C
:100EF000EC5407FEE47807CEC313CE13D8F9FB12E7
:100F00000FFFEB44A0FF120F1E120FFFEB44A1FFD7
:050F1000120F63AF03A6
:010F150022B9
:100FA200AC07C2AF120FFF7FA0120F16121016D29B
:080FB200AF7F327E00020F75D3
:040EBD00AB07AA06CF
:100EC100EA5407FEE47807CEC313CE13D8F9F9EB41
:100ED100FCC2AF120FFFAF01EF44A0FF120F1612B9
:0B0EE1001016D2AF7F327E00020F75AA
:100D3E00020BDBE493A3F8E493A34003F68001F2E5
:100D4E0008DFF48029E493A3F85407240CC8C333B6
:100D5E00C4540F4420C8834004F456800146F6DF85
:100D6E00E4800B010204081020408090102CE47ED9
:100D7E00019360BCA3FF543F30E509541FFEE4937A
:100D8E00A360010ECF54C025E060A840B8E493A341
:100D9E00FAE493A3F8E493A3C8C582C8CAC583CA6C
:100DAE00F0A3C8C582C8CAC583CADFE9DEE780BE24
:01102F0000C0
:1008F200BB010689828A83E0225002E722BBFE0204
:09090200E32289828A83E4932236
:10090B00BB010CE58229F582E5833AF583E02250A1
:10091B0006E92582F8E622BBFE06E92582F8E222EB
:0D092B00E58229F582E5833AF583E4932205
:10093800BB010689828A83F0225002F722BBFE019E
:02094800F32298
:10094A00F8BB010DE58229F582E5833AF583E8F0E3
:10095A00225006E92582C8F622BBFE05E92582C88F
:02096A00F22277
:10096C00EF8DF0A4A8F0CF8CF0A428CE8DF0A42E9F
:02097C00FE2259
:10097E00BB0110E58229F582E5833AF583E0F5F0B7
:10098E00A3E0225009E92582F886F008E622BBFE94
:10099E000AE92582F8E2F5F008E222E5832AF583DA
:0809AE00E993F5F0A3E993229F
:10001E00E50D24D9F582E43402F583E0050D229036
:10002E0002D63010039002D9E475F0011209E202F3
:10003E0008F22009E97F2ED2098018EF540F249080
:10004E00D43440D4FF300D0BEF24BFB41A0050034C
:10005E002461FFE50E6002150E0511E51170020513
:10006E001030100E9002D6E475F0011209E2EF0284
:10007E00093802100C7403D2108003E4C210F50D7F
:10008E009002D61209F9E4F50EF510F511E50E60A1
:10009E00077F2012006180F5750FFFC20AC209C2E8
:1000AE000BC20CC20EC20FC21112002DFF700D300A
:1000BE0010057F00120072AF11AE1022B4255FC280
:1000CE00D5C20D12002DFF24D0B40A00501A75F0BF
:1000DE000A780E30D50508B6FF0106C6A426F6200E
:1000EE00D5047002D20C80D924CFB41A00EF50047C
:1000FE00C2E5D20D020273D20A80C6D20980C0D2E6
:10010E000B80BCD2D580BAD20E80B47F2012006193
:10011E00200B077401B50E0040F112001EFF1200F5
:10012E006102009BD211D20F809512001EFB1200AD
:10013E001EFA12001EF94A4B700679447A037BFFB1
:10014E00200B2EE50E602A7E008E8275830012092A
:10015E000B60060EEE650F70F0C2D5EBC0E0EAC084
:10016E00E0E9C0E0EE1202BAD0E0F9D0E0FAD0E059
:10017E00FB1208F2FF60AAEBC0E0EAC0E0E9C0E0C3
:10018E00120061D0E02401F9D0E03400FAD0E0FB97
:10019E00E50F0460DCD50FD980877BFF7A0279B634
:1001AE00D20B809C791080027908C20FC211800890
:1001BE00D2D5790A8004790AC2D5E50F047002F50A
:1001CE000FE4FAFDFEFF12001EFC7B08200A13123C
:1001DE00001EFD7B1030090A12001EFE12001EFFCB
:1001EE007B20EC3382D592D55013C3E43009069FA1
:1001FE00FFE49EFEE4200A039DFDE49CFCE4CBF8A4
:10020E00C20AEC700CCFCECDCCE824F8F870F38097
:10021E0017C3EF33FFEE33FEED33FDEC33FCEB3360
:10022E00FB994002FB0FD8E9EB300A05F8D0E0C489
:10023E0048B20AC0E00AEC4D4E4F78207B0070C2E7
:10024E00EAB50F0040BCC0E01202BCD0F0D0E020F6
:10025E000A04C4C0E0C4B20AC0F012004AD0F0D5FD
:10026E00F0EB02009B120A0201385301B258010949
:10027E004C01054201B64F01BE4401BE49011E4369
:08028E0001C45501A84601A8B6
:100296004501A847036450010D2D01112E01342B91
:1002A600011523013220034D2A00CD480000012C00
:1002B6003F3F3F00790AA2D5200C14300E09B91031
:1002C600020404B9080104A2D5200F02500104203B
:1002D6000B68920BB50E005034C0E07F20300C192D
:1002E6007F30A20B720F720E500F120313C20BC295
:1002F6000FC20EC2117F30800F300E03E9C0E0122C
:100306000061300E03D0E0F9D0E0B50ECC300E1708
:100316007F30B9100C1200617F58300D077F78804E
:1003260003B90803120061300B057F2D0200617FBF
:10033600202011F87F2B200FF322920B80CF286EFE
:10034600756C6C2900D20A12001E300AF8C20A78AF
:100356000E30D50108F60200CD2D50434958120043
:100366001E2403B405004001E490035F931200527B
:0D037600743A120052D20C750E040201B24E
:100FBA00E4FFFE1208F2600C0FEF70010E09E970EF
:050FCA00F20A80EF2295
:1009B600EF4E6012EF60010EEDBB010B89828A8358
:1009C600F0A3DFFCDEFA2289F05007F709DFFCA965
:0C09D600F022BBFEFCF309DFFCA9F022BC
:1009E200F8E0FBA3A3E0F925F0F0E582158270029E
:0709F2001583E0FA38F02242
:0909F900EBF0A3EAF0A3E9F022FF
:100A0200D083D082F8E4937012740193700DA3A383
:100A120093F8740193F5828883E473740293686097
:060A2200EFA3A3A380DF97
:00000001FF
